:020000040800F2
:1000000078050020212F0008F12A0008F32A0008B3
:10001000F52A0008F72A0008F92A00080000000065
:10002000000000000000000000000000FB2A0008A3
:10003000FD2A000800000000FF2A0008012B00082C
:10004000492F00084D2F0008512F0008552F000898
:10005000592F00085D2F0008612F0008652F000848
:10006000692F00086D2F0008712F0008752F0008F8
:10007000792F00087D2F0008812F0008852F0008A8
:10008000892F00088D2F0008912F0008952F000858
:100090005D2C0008992F00089D2F0008A12F000853
:1000A000A52F0008A92F0008AD2F0008B12F0008C8
:1000B000B52F0008B92F0008BD2F00084D200008FB
:1000C00029210008C12F0008C52F0008C92F0008EA
:1000D000CD2F0008D12F0008D52F0008D92F0008F8
:1000E000DD2F0008E12F00085F2C00082DE9F04FFC
:1000F00080460FF23060A5B015461E46D0E90023B9
:10010000CDE91223002004910D900DF1500A6FF0FB
:10011000004900E065190020ADF8020012AB4FF075
:10012000FF3229460DF1020001F093F80446012C3C
:1001300004DA2878441EA441E443E40FBDF8020029
:1001400025280CBFA4F1010BA346BBF1010F0EDB68
:100150002F4617F8011B0498C0470028049000F0B0
:10016000F3800D98401CBBF1010B0D90F1D1BDF84F
:100170000200252807D100200790089009900A90D6
:100180000B900C9005E00028C4D10D98D2E240F00D
:10019000010015F8011F2029F9D023290DD02B29A2
:1001A00004D02D2906D030290AD00CE040F00200FE
:1001B00080B2EEE740F00400FAE740F00800F7E70D
:1001C00040F01000F4E72A290ED13168316051F86F
:1001D000042B3160002A0F9204D5514240F00400F4
:1001E0000F9180B26D1C11E000210F9109E00F9971
:1001F000494505D001EB810302EB430130390F91F2
:100200006D1C2A78A2F130010A29F0D329782E2911
:1002100003D04FF0FF310E911DE015F8011F2A2980
:1002200007D1316831606D1C51F8042B31600E929A
:1002300011E000210E9109E00E99494505D001EB2E
:10024000810302EB430130390E916D1C2A78A2F133
:1002500030010A29F0D3ADF840000FF2D0402978E0
:1002600001F008F808B115F8010B8DF842009DF86F
:100270004200682802BF29786829622005D06C28CE
:1002800004BF28786C2803D171208DF842006D1CC2
:1002900014A8069015F8014BB4F125002AD01C389B
:1002A00000F0D480001F022840F2D080133800F004
:1002B000F580093800F0CA80801E00F05C81401E85
:1002C00000F03581401E022840F2C080001F00F07F
:1002D0002E81401F00F08B80401E00F0DF80401E0A
:1002E00035D0C01E0BD0801E00F0D880C01E00F09C
:1002F000D58063E125208DF85000012067E19DF84D
:1003000042006C283068306014D050F8047B3060B4
:1003100005970E9C002C04D5384600F0B7FF044624
:1003200006E022460021384600F0CCFF00B1C41B95
:1003300008944DE150F8042B306002A9404600F0CB
:1003400033FA002840F144814FF0FF30F2E1316888
:1003500031603C2451F8040B31600021CDE90201E9
:1003600014A80590DDE90201069F11B908B90E9A9B
:10037000B2B10206120FA0EB02123032D2B2631EEB
:100380003A2AA8BF27320009DA5540EA0170090964
:1003900008BF00281C4603D0059AE3199A42E8D307
:1003A000E0190590C4F13C010E980891814209DAE8
:1003B000401A0A904FF6EF71BDF840000840ADF8C2
:1003C000400005E1002840F103819DF8400000F065
:1003D0001400102840F0FC800F98079A801A0A9A9F
:1003E000801A441A012CC0F2F3800A94F0E09DF8C0
:1003F000420062281AD0682806D06A280CD06C28DF
:100400001CD0712808D019E03068306050F8041B07
:1004100030600D980880DBE03068306050F8042BC5
:1004200030600D98C117C2E90001D1E0306830603A
:1004300050F8041B30600D980870C9E030683060D7
:1004400050F8041B30600D980860C1E03068C01D92
:1004500020F007023260D2E9000108323260CDE9B3
:100460000201002902D507982D210AE0BDF84000BD
:10047000810702D507982B2103E0C00705D507980F
:10048000202100F80A10401C079014A807990818AA
:100490000590214602A800F091FB99E09DF84200EA
:1004A0006C280DD0712818BF6A2809D13068C01D8A
:1004B00020F007023260D2E900010832326005E024
:1004C0003168316051F8040B31600021CDE902013F
:1004D0009DF84200682803D1DDE9020180B20BE0FB
:1004E000622803D1DDE90201C0B205E0742818BF1B
:1004F0007A2804D1DDE902010021CDE902019DF84D
:10050000400000072ED5DDE90201002908BF0028C0
:1005100028D044F02000782824D10798302100F812
:100520000A10401C411C079100F80A401AE09DF88F
:100530004200314600F001F9CDE90201002902DA5A
:1005400007982D210AE0BDF84000810702D50798E1
:100550002B2103E0C00705D50798202100F80A10D9
:10056000401C079014A8079908180590214602A876
:1005700000F0A0FA2CE09DF842006C2809D0012080
:1005800007903068306050F8041B30608DF85010D0
:100590001EE03068306001AA50F8041B3060ADF8EE
:1005A00004100020ADF8060002A94FF0FF300E90B5
:1005B000404600F0F9F800280AD5C5E625208DF858
:1005C0005000012007901CB18AF8014002200790DA
:1005D0000F980799401A0A99401A0899401A0B99DE
:1005E000401A0999401A0C99441A9DF84000400796
:1005F00010D42020012C8DF800000BDB27460123AE
:100600006A4602A9404600F000FE00287FF49CAE36
:100610007F1EF4D1DDF81CB0BBF1000F14AF0DD07C
:1006200017F8011B0498C047002804903FF48CAED3
:100630000D98401CBBF1010B0D90F1D130208DF8CD
:1006400000000A9F012F0ADB01236A4602A94046E7
:1006500000F0DBFD00287FF477AE7F1EF4D1DDF8DB
:1006600020B0059FBBF1000F0DD017F8011B0498B7
:10067000C047002804903FF467AE0D98401CBBF1C2
:10068000010B0D90F1D130208DF800000B9F012F50
:100690000ADB01236A4602A9404600F0B6FD0028A5
:1006A0007FF452AE7F1EF4D105980899DDF824B08E
:1006B0000F18BBF1000F0DD017F8011B0498C047AD
:1006C000002804903FF440AE0D98401CBBF1010B94
:1006D0000D90F1D130208DF800000C9F012F0ADB26
:1006E00001236A4602A9404600F08FFD00287FF4EE
:1006F0002BAE7F1EF4D19DF8400040077FF50BAD77
:100700002020012C8DF80000FFF605AD01236A467C
:1007100002A9404600F079FD00287FF415AE641E62
:10072000F4D1F8E40000000000000000686A6C7476
:100730007A4C000025B0BDE8F08F622826D06828EA
:100740001DD06A2808D06C2827D0712804D07428BE
:1007500023D07A280CD020E00868C01D20F00700C4
:100760000860D0E900230830086019461046704739
:100770000A680A6052F8040B0A60002170470A6890
:100780000A6052F8040B0A6000B20BE00A680A60C3
:1007900052F8040B0A6040B204E00A680A6052F89A
:1007A000040B0A60C11770472DE9F44F0D4694B051
:1007B000D5F830A0BAF1000F804648BF6FF0004A6C
:1007C00000F0ACFD696B401801900FF66C20D0E989
:1007D0000023CDE9022395F83800400702D40198A0
:1007E000412805D240200DF110090190002609E0B2
:1007F00000F09AFD5FEA0009F8D14FF0FF3056E1B2
:10080000AAEB040ABAF1010FC0F2CE801498018855
:1008100002AA0DF1010000F0DFFD0028044600F1FE
:10082000DE801498008810B9641E00F1D880A245BB
:10083000C0F2BA80686901992218914280F0A280C2
:100840006E634042296A401AA969401A696A401ACF
:10085000E969401AA96A461A95F83800400710D489
:100860002020012E8DF800000BDB374601236A465D
:100870002946404600F0C9FC002840F0B0807F1EA9
:10088000F4D1D5F814B0BBF1000F4F460DD017F8D6
:10089000011BA868C0470028A86000F0A080E86A93
:1008A000401CBBF1010BE862F1D130208DF8000053
:1008B0002F6A012F0ADB01236A462946404600F0D1
:1008C000A4FC002840F08B807F1EF4D1D5F818B02E
:1008D000EF68BBF1000F0CD017F8011BA868C047E8
:1008E0000028A8607BD0E86A401CBBF1010BE862DD
:1008F000F2D130208DF800006F6A012F09DB01234F
:100900006A462946404600F080FC002867D17F1ED9
:10091000F5D1E868A969D5F81CB00F18BBF1000F34
:100920000CD017F8011BA868C0470028A86056D053
:10093000E86A401CBBF1010BE862F2D130208DF86F
:100940000000AF6A012F09DB01236A4629464046B1
:1009500000F05BFC002842D17F1EF5D195F83800ED
:1009600040070DD52020012E8DF8000008DB012363
:100970006A462946404600F048FC80BB761EF6D108
:1009800000266E61224668690DF10101484400F0BD
:1009900031FD6869201868611498801C1490801ECD
:1009A000008800287FF42CAF686B6969401A296AB7
:1009B000401AA969401A696A401AE969401AA96A85
:1009C000A0EB010A95F83800400710D4BAF1010FE6
:1009D0000DDB5446A8682021C047A86010B94FF02D
:1009E000FF365DE0E86A401C641EE862F2D16B6984
:1009F0004A462946404600F008FC0028EFD12C6A00
:100A0000012C0ADBA8683021C0470028A860E6D086
:100A1000E86A401C641EE862F4D1AB69EA682946C2
:100A2000404600F0F2FB0028D9D16C6A012C0ADBA9
:100A3000A8683021C0470028A860D0D0E86A401CD0
:100A4000641EE862F4D1E868A969EB690A182946CE
:100A5000404600F0DAFB0028C1D1AC6A012C0ADB69
:100A6000A8683021C0470028A860B8D0E86A401CB8
:100A7000641EE862F4D195F8380040070ED5BAF14B
:100A8000010F0BDBA8682021C0470028A860A6D072
:100A9000E86A401CBAF1010AE862F3D16E616E6344
:100AA00004A881451CBF484600F0E0FC304615B064
:100AB000BDE8F08F2DE9FA4E05460A462F696F2AE8
:100AC00008BF082405D041F02000782814BF0A246C
:100AD00010243C26D5E90001642A18BF692A814602
:100AE0008A4605D1002903DAD9F100096AEB4A0ADE
:100AF000BAF1000F08BFB9F1000F0CD1286B50B943
:100B0000082C36D195F83800000732D530203B2626
:100B100087F83B002DE0E31748465146224600F097
:100B2000E5FCA4FB0023A9EB02023032D2B2A6F10D
:100B3000010B3A2A5E4603DB9DF80030513B9A18C0
:100B40000BF8072081465FEA010A08BFB9F1000FE0
:100B500003D0E868F1198842DDD3082C09D195F853
:100B60003800000705D5F05D302802D0761E302011
:100B7000F055C6F13C00A861F119E960296B884283
:100B800008DA081A28624FF6EF71288F0840288784
:100B9000BDE8F38E00290ED595F8381001F0140148
:100BA000102908D1696B6A69891A2A6A891A0E1A8A
:100BB000012EA8BF2E62BDE8F38E00002DE9F24F92
:100BC00004468EB0D4E90001CDE9020104AF9DF8DE
:100BD000380040F0200BBBF1610F0AD0206B0028D9
:100BE00048BF062004D408BFBBF1670F01D1012024
:100BF00020636168C1F30A5040F2FF7290421CD139
:100C0000080304BF2068002809D10320A0619DF8D3
:100C1000380061381A2836D30FF2306108E003201B
:100C2000A0619DF8380061381A2829D30FF21461A9
:100C3000E068032200F0DEFBBEE1012816DA204660
:100C400000F0CBFC012811DB00250020BBF1610F77
:100C500020D1E168302201F8012B4A1CE2609DF8A6
:100C60003820612A0CBF782258220FE0626840F2D7
:100C7000FE3161F31E52451A62604FF0FF30E5E726
:100C80000FF2BC51D4E70FF2C051D1E70A7061698D
:100C9000891C616110B90026002584E1BBF1610F58
:100CA00040F09880206B00284CBF2126461CD4E9D8
:100CB00000ABDDE902010022002300F0AFFC36B2F8
:100CC0003ABF8BF00040CDE902A0CDE902AB06F1BE
:100CD00001082D1FB8F1010F8DF810200DF111073B
:100CE00036DBDDE902010022002300F0AFFC2FD249
:100CF0001C2102A800F0C2FCDDE9020100F044FD65
:100D0000A8F10708B8F1010F814609DB00F068FD82
:100D100002460B46DDE9020100F07AFDCDE9020151
:100D2000F81D072105E009F00F0200F8012D4FEA38
:100D30002919B9F1010F01DB491EF4D5491E5CBF29
:100D4000002200F8012DF9D5C71DB8F1010FC8DA4E
:100D50000DF11100391AB142B8BF0E4636B230005B
:100D60000DF111072FD4884206DA04A941184978F9
:100D70000829A8BF0F2100DA002104AA821800E088
:100D8000761E12F80139401E8B42F9D00F2904D18A
:100D900004A941184A78521C4A70002802D504AFB1
:100DA000761C2D1D36B2701E0DD4C1190A78303252
:100DB000D2B23A2A03DB9DF838303A3B9A18401EEB
:100DC00001F80129F2D5206B002840F1EC80701E5B
:100DD0002063E8E0DDE902010022002300F01EFCB0
:100DE0003CBF81F00041CDE902012DB247F297509E
:100DF00068434B49DFF82C9190FBF1F52DB2C5F11A
:100E0000070ABAF1010F90461CDBDDE902675FEAD1
:100E1000CA7007D542464B463046394600F0B8FD09
:100E200006460F464046494642464B464FEA6A0A46
:100E300000F0AEFDBAF1000F80468946E7D1CDE95A
:100E4000026724E0CAF1000A0026374F14E05FEA87
:100E5000CA7007D542464B463046394600F098FDE9
:100E600006460F464046494642464B4600F090FD36
:100E70004FEA6A0A80468946BAF1000FE7D1DDE9F8
:100E8000020132463B4600F055FECDE90201BBF1BE
:100E9000660F0CBF05F10A000620216BDFF88C906D
:100EA0004618142EA8BF132630208DF810000DF11F
:100EB0001107012E3CDBDDE9020100F07BFC07F1AC
:100EC000080104220A23B0FBF3F303EB8307A0EB32
:100ED0004700303001F8010C0A20B3FBF0F000EBC2
:100EE0008007A3EB47033033521E01F8023DE9D1DE
:100EF000083E012E01F10807DBDBDDE9020100F00D
:100F000059FC00F077FC02460B46DDE9020100F0D7
:100F10007FFC00224B4600F03BFDCDE90201CAE711
:100F2000A0860100000024400000F03F84D79741D4
:100F30000DF11100381A0DF1110702E0401E6D1E6F
:100F40007F1C39783029F9D0BBF1660F02D12DB260
:100F5000691C04E0BBF1650F0CBF01210021226B6D
:100F60008E1836B2B042B8BF064636B231001AD437
:100F7000814204DAC85D3528A8BF392000DA302064
:100F8000CA19521E00E0761E12F80139491E83422A
:100F9000F9D0392802D1C85D401CC855002902D5B6
:100FA0007F1E761C6D1C2DB29DF83810009533B253
:100FB0003A46204600F003F80FB0BDE8F08F2DE967
:100FC000F04786B006468A4690461D4600F0FBFE76
:100FD000012D406A376B90F8009002DA01250FF27C
:100FE00070284AF02000BDF93840662808BF641C0C
:100FF00012D0672876D114F1040F79DBBC4277DA7E
:1010000096F83800641C000702D4BD42B8BF2F46D2
:1010100024B23F1B48BF002724B2F068B169012CFD
:1010200021DA4A1C30230B54012F03DA96F83810CA
:10103000090702D502F80090521CB261E742B8BF1E
:101040007C4224B26142E7197162AF42B8BF3D46AB
:10105000B3692DB2F5612A464146181800F0CAF965
:10106000781BB062BAE00818A54216DA2A46414653
:1010700000F0C0F9B1696918601B012FB16170629D
:1010800003DA96F83800000705D5F06801F80090FB
:10109000F069401CF061B762A0E02246414600F0D2
:1010A000A9F9B06920182D1B012F03DA96F8381022
:1010B000090703D5F16800F80190401C2DB2B0611A
:1010C000AF42B8BF3D46F068B3692DB22A4604EB83
:1010D0000801181800F08EF9B0692818B061781B63
:1010E00070627BE0BAF1610F14D14FF0700A16E024
:1010F000BD4204DA96F83810090758BF2F467F1E04
:1011000048BF0027BAF1670F14BF4FF0450A4FF0F0
:10111000650A04E0BAF1410F08BF4FF0500AB16907
:10112000F0684A1CB261012F18F8013B0B5403DA36
:1011300096F83810090715D5531CB36102F80090D2
:10114000012F0FDB6D1E2DB2AF42B8BF3D462DB251
:101150002A464146181800F04DF9B0692818B061C8
:10116000781B7062F068B1690918200081F800A04E
:1011700004D42B20487001F1020804E02D224A70AB
:1011800001F102086442002502AF08E00A22684625
:1011900000F032FE019807F8010B6D1C009C21B293
:1011A0000129F3DA022D06DA4AF02000652804BF8F
:1011B000302008F8010B4DB9302008F8010B07E08A
:1011C0006D1E02A8285C303008F8010B012DF7DAFB
:1011D000F068B1690818A8EB0000F06196F83800D3
:1011E00000F0140010280DD17069B1690818716AF7
:1011F0000818F1690818B16A0818716B8842BCBFF9
:10120000081A306206B0BDE8F087F8B504460D460E
:1012100016461F46002077B116F8011BA868A047A4
:10122000A86030B1E86A401CE86200207F1EF3D15C
:10123000F2BD4FF0FF30F2BD0000000000000000E2
:101240006E616E004E414E00696E6600494E46006A
:101250003000F8B504460D4616461F4600F0D4FD92
:101260003B4632462946204601B0BDE8F04000F03A
:10127000E2BD00000278C9B28A421AB11CBF10F860
:10128000012FF9E718BF00207047000000F10103AB
:10129000810704D010F8011B89B18107FAD10268D7
:1012A000B2F10131914311F0803F04BF50F8042F97
:1012B000F6E710F8011B11B110F8011BFBE7C01A8B
:1012C00070470000C9B2830706D0521E22D310F81F
:1012D000013B9942F7D11FE0083A13D302F104020F
:1012E00041EA012141EA014150F8043B121F21BFAC
:1012F0004B40A3F1013C2CEA030C1CF0803FF3D0DF
:10130000C9B2001F083210F8013B521E28BF91EAF3
:10131000030FF8D818BF0120401E704780B500F0B9
:1013200073FD012002BD000070B5054605F10F00F8
:10133000C408C046C046E400A54232D2082C04D2FC
:10134000082402E0083000F091F8224802681100F9
:101350000CD1011D0A6802B31368A34238BF111DE6
:10136000F8D310E01D68A5420DD2191D0B68002BA3
:10137000F8D11268011D00E0191D0B6893420CD0D2
:101380001D68A542F8D361B10D682A68A2F108036F
:10139000A3420AD26A680A600FE000F06FFD0028DD
:1013A000D0D1C046C046002070BD63190B60121B2F
:1013B0006E685E600B681A602C60096800291DBFAA
:1013C0004A68002A091D00210160C046C04605F197
:1013D000080070BD0008002070B504460D46164692
:1013E00000F012FD324629462046BDE8704000F06C
:1013F00015BD000062B38B0708D0521E11F8013BE7
:1014000000F8013B00F024808B07F6D1830740F001
:10141000208000BF103A07D330B4B1E83810103A3A
:10142000A0E83810F9D230BC530724BFB1E8081047
:10143000A0E8081044BF51F8043B40F8043BD20731
:1014400024BF31F8022B20F8022B44BF0B78037025
:101450007047083A07D3B1E80810083A40F8043B4F
:1014600040F804CBF7D25307E4E7000000B9704717
:1014700038B5A0F108042068082833D310F0070F0E
:1014800030D1C046C0461848416809B18C4203D2E9
:101490006160446017E019464B680BB1A342FAD370
:1014A0000B685D18AC421BD3A54204D12268D21848
:1014B0000A600C4607E04A681AB123681B199A4271
:1014C0000ED362604C60616851B1226813198B427F
:1014D00006D10023036008688018206048686060B7
:1014E000C046C04631BD0000000800201B4213D199
:1014F000094236D12AB18446B0FBF2F002FB10C299
:10150000704700F0D1BCFCD30022002370470B00D1
:101510000200002100207047904271EB030CF6D3CB
:1015200070B5B1FA81F4B3FA83F52C1BA340C4F172
:10153000200532FA05F63343A2405FF00046E6404C
:1015400002E05B085FEA3202841A71EB030524BFF4
:10155000204629467641F4D302000B0030000021DA
:1015600070BD012ACFD970B5140C20D0B1FA81F426
:10157000B2FA82F5C4F120046419B4F12006D6D37E
:10158000B2405FF00044F440002502E052085FEAF8
:101590003303C61A71EB020E24BF30467146644114
:1015A0006D41F3D302000B002000290070BD0C46F2
:1015B000B1FBF2F102FB11452D0445EA1045B5FBE4
:1015C000F2F402FB145580B240EA0545B5FBF2F097
:1015D00002FB105240EA044070BD30B4436803F08F
:1015E000004201211B031B0B436004BF0368002B57
:1015F00008D10DE00368DD0F45EA440444605B0058
:101600000360491E4468E302F4D523031B0B4360C7
:1016100043681A434260084630BC70474FF4001CD0
:101620001CEB410F94BF1CEB430F09E041EA030C94
:1016300050EA4C0C52EA0C0C03D2994208BF90427B
:10164000704714BF8B428242704700004FF4001C69
:101650001CEB410F94BF1CEB430F09E041EA030C64
:1016600050EA4C0C52EA0C0C03D28B4208BF824267
:10167000704714BF994290427047000070B504460D
:101680000D466068C0F30A5040F2FF71884207D1EE
:101690006068000304BF2068002817D0022070BDD6
:1016A00020B92046FFF799FF012866DA012D0FDBEC
:1016B00040F2FF71091A8D420AD36068002847BFC3
:1016C00000202F4900202F49C4E90001012070BDEE
:1016D0004142A942616806DA6FF31E51401941EA9E
:1016E0000050606040E0401E63684519012205F12A
:1016F000350062F31F53352801F00041636003D3C6
:1017000061600020206070BD002015F11F0F04DA19
:10171000206823600022203562606A4212D0401E99
:1017200025688041C2F12003C0439D4045EAD07046
:1017300025686668D54006FA03F32B432360636887
:10174000D340636062680A43B0F1004F626003D81F
:101750000DD12078C0070AD52068401C2060206881
:1017600028B96068401C60604FF0FF3070BD606851
:10177000884204BF20680028F6D1002070BD00BF59
:101780000000F0FF0000F07FF446400D40EAC12069
:10179000490006D200F014F8004248BF6FF0004044
:1017A000604700F00DF84FF0004188428CBF0846BA
:1017B00040426047400D40EAC120490080F00D8062
:1017C00040F00040490DA1F58061491C05D4D1F1DC
:1017D0001F0154BFC840C01770474FF0000070474A
:1017E000010040F10980F446404200F005F851F054
:1017F00000416047010000BF09D0B0FA80F1884085
:10180000C91CC1F58461090501EBD0214005704771
:10181000F0B44FF0004591EA030F44BF6B4000F075
:1018200045BB00BF841A71EB030604D26E40001B57
:10183000B141121973414FF4001C1CEB410F34BF2E
:101840007CEB430684E00C0DA4EB1356362E7DDCB6
:10185000012E43DC45EAC32343EA525312BFD202AE
:1018600092025B08240545EAC12141EA5051D2EBBE
:10187000C020994125D407D1B0FA80F610FA06F1BC
:1018800064D00020203608E0B1FA81F6B140C6F1FC
:10189000200220FA02F21143B0404FEAF474B4EB94
:1018A000465434F001064FEA74040AD8D6F50016FF
:1018B000760D04F00044F04061FA06F25040F14029
:1018C0004840C00A40EA415021F0004128BF5FEA89
:1018D000500550F1000044EBD12137E045EAC32325
:1018E000DB0A45EAC121C90AB6F120050EDD42EA4C
:1018F0000242120CC5F1200603FA06F6EB4042EA5A
:1019000006056D42984161F100010DE062FA06F5AD
:10191000F240554063FA06FC82EA0C02F3405A405A
:101920006D42904161EB030111F4801F05D1641EEB
:10193000620502D06D004041494121F48011430805
:1019400075F1004350F1000041EB0451F0BC7047C9
:101950001CEB410F15D223F0004352EA43060BD093
:101960004FEA4C0CBCEB410F04D80C0D661E342E14
:10197000B7DDEBE7801A994150EA410608BF002124
:10198000E4E708BF1CEB430F28BF6FF00001DDE761
:10199000B0B581EA030C0CF0004C40F2FF7515EA7B
:1019A00011541DBF15EA1357AC42AF4239E0E41998
:1019B00023EA455343F48013C90241F0004141EA50
:1019C000505EC7021100A7FB020200284FF0000082
:1019D000EEFB01204FF00001E3FB072118BF42F0AE
:1019E0000102401800214941E3FB0E01A4F5806487
:1019F0000F0302D252004041494154F101046CDD11
:101A0000470872F1004250F1000051EB0451A1F57A
:101A100080115CBF41EA0C01B0BD4CEA05510020C9
:101A2000B0BD05EA1357AC4214BFAF4241E050EAE3
:101A3000410E1CBF52EA430E02E061460020B0BDD9
:101A400024423C441BD15FEA070EF6D0090302BFD3
:101A500001460020AEF1140EB1FA81F7AEEB070497
:101A600001FA07FE0C37C7F1200100FA07F7C8405A
:101A70004EEA000E23EA455343F48013A2E733F005
:101A80000043B3FA83F704BFB2FA82FE77440B3FF8
:101A9000E41BB7F1200E2FBF02FA0EF3BB40C7F1D3
:101AA000200E22FA0EFE38BF43EA0E03BA40641C31
:101AB00082E750EA410E14BF52EA430E6FF0000174
:101AC0004FF4001717EB430F8ABF194617EB410F6E
:101AD000B5E74CEA05510020B0BDD4F10104B4F1E2
:101AE00020070FDAC4F12007520828BF42F0010294
:101AF00010FA07F501FA07F7E1BF2A43E04038433F
:101B0000E1400FE0352C98DCC7F1200452EA400296
:101B100020FA07F218BF42F0010231FA07F0A140A3
:101B20000A43002172F1004250F1000051EB0C0118
:101B3000B0BD00002DE9F04140F2FF7581EA030CD1
:101B40000CF0004C15EA11541DBF15EA1357AC42B6
:101B5000AF42E9E0BC41C1F31301C3F31303801AA0
:101B6000994143F4801304D2641E40004941801817
:101B70005941C90241EA5051B1FBF3F603FB16117A
:101B8000A2FB0675D7EBC020A94102D2761E8018B1
:101B90005941C90241EA5051B1FBF3FE03FB1E114A
:101BA000A2FB0E75D7EBC020A94103D2AEF1010E06
:101BB00080185941890241EA9051760546EA8E2EF5
:101BC000B1FBF3F603FB1611A2FB0675D7EB8020E1
:101BD000A94102D2761E80185941C90241EA5051EA
:101BE0004EEA060EB1FBF3F603FB1611A2FB0675D7
:101BF000D7EBC020A94102D2761E80185941C902F4
:101C000041EA5051B1FBF3F703FB1711A2FB073573
:101C1000D3EBC020A94167F100070CBF004247F099
:101C2000010766F3D5274FEA1E31B80814F5806422
:101C300014DDBD0775F1004250EB0E5051EB04511D
:101C400011F5801F5CBF41EA0C01BDE8F0814CF04A
:101C50007F6141F0E0410020BDE8F081BD076D08E3
:101C600040EA0E5041F48011D4F10104B4F1200691
:101C70000ADAC4F120060200E04001FA06F3E1406E
:101C80001843B24015430EE0342C14DCC6F1200496
:101C900045EA40056D0820FA06F2154321FA06F0E0
:101CA000A1400D43002175F1004250F1000051EBBD
:101CB0000C01BDE8F08100205FEA0C01BDE8F08175
:101CC000CFB992185B41B3FA83F704BFB2FA82F638
:101CD000BF190B3FB7F120062FBF02FA06F3BB4036
:101CE000C7F1200622FA06F638BF3343BA401CB1CA
:101CF000E419641E2FE77F4231F00041B1FA81F40C
:101D000004BFB0FA80F6A4190B3CB4F120062FBF33
:101D100000FA06F1A140C4F1200620FA06F638BF09
:101D20003143A0403C1B16E7AC421ABF05EA1357EB
:101D3000AF4214E050EA41061CBF52EA4306BFE737
:101D400050EA4107304661461CBF41EA0551BDE8F3
:101D5000F08152EA430C08BFC143BDE8F081002086
:101D60004FF4001616EB410F98BF16EB430F08BF58
:101D700016EB410F24BFC14305E016EB430F0CBF28
:101D800061464CEA0551BDE8F081000080B513487A
:101D900000F0F6F80FF24C020FF2440101604262CB
:101DA00041600FF24402826381600FF24402C1601D
:101DB0000161416181618162C16201634163C2630A
:101DC0000164416401BD10B5044800F0D9F804462F
:101DD000206808B9FFF7DAFF204610BD7800002020
:101DE000000000002E00000066616C7365000000BA
:101DF000747275650000000091FBF2F303FB121191
:101E0000C0E900317047000080B5DFF80C0000F039
:101E1000B7F8806902BD00000801002030B430B975
:101E20000FF24800D0E90045C2E900451BE001700F
:101E3000012030BC704730B431B90FF23800D0E91E
:101E40000045C3E900450EE01AB930BC6FF001004F
:101E5000704708B10A7802800978481E804130BC7A
:101E6000C043C00F7047002030BC70470000000026
:101E700000000000000000000000000007490868A2
:101E800008B1002070470648C008C0000860054936
:101E9000C908C900091A0160704700BF080800207E
:101EA0007F0500207807002070470000841A71EB3E
:101EB000030603D2001BB141121973414FF4001CF9
:101EC0001CEB410F34BF7CEB430443E00C0DA4EB4F
:101ED0001356352E50DC45EAC323DB0A45EAC121FF
:101EE000C912B6F120050DDD63FA05F6EB4086EA6E
:101EF0000305124218BF45F00105C01851F1000159
:101F00000CD213E062FA06F5F2405540F3415A4014
:101F1000B340F3405A408018594107D349085FEA5B
:101F200030005FEA350528BF45F0010501F5801155
:101F3000420875F1004250F1000041EB0451F0BC41
:101F40004FF4001C1CEB410F38BF70470020090DF7
:101F5000090570471CEB410F10D252EA43060BD023
:101F6000BCEB410F05D80C0DAB43661E342EB5DD1E
:101F700002E0AB4380185941F0BC7047F0BC704799
:101F80007047000000B587B00121082000F0A6F9D5
:101F900001215FF4001000F0B0F94020ADF804001A
:101FA00048208DF8070003208DF8060001A982481B
:101FB00000F0E2F9C020ADF804001C208DF8070005
:101FC00003208DF8060001A97B4800F0D5F97B4875
:101FD00000F074FA0020ADF80C004BF6FF70ADF87D
:101FE0000E00A820ADF810004FF48060ADF812008C
:101FF0004FF48040ADF814007148029002A96F4878
:1020000000F077FA1F208DF8000000208DF8010005
:1020100002208DF8020001208DF80300684600F0D0
:1020200023FB20208DF8000003208DF80200684675
:1020300000F01AFB01224FF4E061604800F0E8FA7A
:1020400001215E4800F0D6FA07B000BD00B583B0AC
:1020500000200090002001905A48008880B2009033
:102060005948008880B201900198C0075BD400985D
:10207000800709D5002000900020019000205349DE
:102080000870002052490870009840060ED551484B
:10209000008851494D4A127850544C480078401CF1
:1020A0004A49087000200090002001900098C00666
:1020B0000CD54248008850F00100404908800020BB
:1020C000009000200190012044490870009800060B
:1020D0001BD53F480078002804D13F48017840488C
:1020E00000F0FEFA3F483C49097810EB41003849BE
:1020F0000978085C3749088035480078401C344925
:1021000008700020009000200190009840050AD53A
:102110002C4800884FF6FF5108402A4908800020CB
:1021200000900020019007BD00B583B00020019011
:10213000002000902348008880B201902248008847
:1021400080B2009028491D4800F06DFA002827D180
:1021500026491A4800F067FA002821D12449174877
:1021600000F061FA00281BD12249144800F05BFA04
:10217000002815D12049114800F055FA002804D054
:102180001D490E4800F068FA0AE01C490B4800F0AF
:102190004AFA002804D15FF00121084800F043FA10
:1021A0000648008850F00100044908800020019092
:1021B0000020009007BD0000000C014000540040CA
:1021C000A086010014540040185400401B08002051
:1021D0001D08002010540040C80700201C080020E3
:1021E000302F0008000000200080000100400001A6
:1021F00000100001000800010004000100020001BD
:1022000030B40021002200230024524D2D6815F027
:102210000C0529000D00002D04D0042D05D0082D3B
:1022200006D026E04C4D056025E04B4D056022E0D0
:10223000484D2D6815F470152A00464D2D6815F48B
:1022400080352B00920C921C002B04D1434D05FBD2
:1022500002F505600CE03F4D2D68AD0304D53F4D00
:1022600005FB02F5056003E03B4D05FB02F505604B
:1022700001E0394D0560374D2D6815F0F005290056
:102280000909374D4D5D2C000568E5404560314D2D
:102290002D6815F4E0652900090A314D4D5D2C00CB
:1022A0004568E54085602B4D2D6815F46055290083
:1022B000C90A2B4D4D5D2C004568E540C560254D94
:1022C0002D6815F440452900890B264D4D5D2C00E5
:1022D000C568B5FBF4F5056130BC7047C9B200298B
:1022E00005D0214A126802431F4B1A6004E01E4ABF
:1022F000126882431C4B1A607047C9B2002905D08E
:102300001A4A12680243194B1A6004E0174A12680D
:102310008243164B1A607047C9B2002905D0144A8F
:1023200012680243124B1A6004E0114A1268824399
:102330000F4B1A607047C9B2002905D00D4A1268C8
:1023400002430C4B1A6004E00A4A12688243094BAC
:102350001A6070470410024000127A0000093D0024
:102360002000002030000020181002401C10024005
:102370000C10024010100240F0B50027002200238C
:1023800000240025002691F803C01CF00F0C6746BE
:1023900091F803C05FEACC6C03D591F802C05CEA07
:1023A000070791F800C05FEA0C6C3AD0D0F800C083
:1023B00065465FF0000C6346082B31D25FF0010CDC
:1023C0001CFA03FC6446B1F800C014EA0C0C624627
:1023D000A24223D15FEA830C64465FF00F0C1CFA23
:1023E00004FC6646B54317FA04FC5CEA050591F85F
:1023F00003C0BCF1280F06D15FF0010C1CFA03FCEE
:10240000C0F814C00AE091F803C0BCF1480F05D130
:102410005FF0010C1CFA03FCC0F810C05B1CCBE79A
:102420000560B1F800C0BCF1FF0F3FDDD0F804C07B
:1024300065465FF0000C6346082B36D25FF0010C56
:1024400013F1080E1CFA0EFC6446B1F800C014EA41
:102450000C0C6246A24226D15FEA830C64465FF010
:102460000F0C1CFA04FC6646B54317FA04FC5CEA40
:10247000050591F803C0BCF1280F07D15FF0010CEE
:1024800013F1080E1CFA0EFCC0F814C091F803C03A
:10249000BCF1480F07D15FF0010C13F1080E1CFAD4
:1024A0000EFCC0F810C05B1CC6E74560F0BD89B2E9
:1024B0000161704789B241617047000010B50400A6
:1024C000484884420AD101215FF40010FFF733FF2E
:1024D00000215FF40010FFF72EFF09E001215FF4F7
:1024E0008000FFF728FF00215FF48000FFF723FF43
:1024F00010BD2DE9F04385B004000D005FF0000928
:1025000000260427DFF8E080A08881464FF6C070DF
:1025100010EA09096846FFF773FE029880463348BF
:10252000B8FBF0F0060056EA0909A4F804902088E8
:102530004FF6FE71084020800020814628682C4913
:1025400088420ED228684000B8FBF0F00700BFB206
:10255000042F01DA0420070057EA0909701C2084BF
:1025600026E0E8884BF6FF71884206D128680321EF
:102570004843B8FBF0F0070007E0286819214843FA
:10258000B8FBF0F0070057F48047380501D157F049
:10259000010757F4004050EA0909B6B24FF49670AB
:1025A00000FB06F04FF47A7190FBF1F0401C2084A0
:1025B000A4F81C90208850F00100208020888146DB
:1025C0004FF6F53010EA0909A8886989084350EAEE
:1025D0000909A4F80090A88929890843208105B039
:1025E000BDE8F0830054004000127A0040420F0022
:1025F000A1860100C9B2002904D0028852F001026C
:10260000028004E002884FF6FE731A400280704791
:10261000D2B2002A03D083880B43838002E08388F0
:102620008B438380704710B40200002000239488FD
:1026300014EA114414F4E06423000902090A948A9C
:102640000C4204D0002B02D00124200001E0002421
:102650002000C0B210BC704700220B021B0A1A00F7
:10266000D34383827047000070B4002300210F22FF
:10267000C478002C20D0164C246814F4E064D4F5FF
:10268000E064240A2300D3F104042100DA404478F2
:102690008C4023008478144023431B010D4C0578A3
:1026A0002B550124057815F01F05AC400A4D06781E
:1026B000761145F8264009E00124057815F01F053C
:1026C000AC40064D0678761145F8264070BC704740
:1026D0000CED00E000E400E000E100E080E100E05B
:1026E0000EB400B582B003A9009102466B460121E9
:1026F000034878440A30FDF7F9FC06BC5DF810FB8E
:10270000FD07000010B440B2002808D50A01724B42
:1027100040B210F00F04E31803F8042C03E00A01A0
:102720006E4B40B2C25410BC704710B50400601E1E
:10273000B0F1807F01D301200EE0601E684908607F
:102740000F215FF0FF30FFF7DDFF002065490860D3
:10275000072065490860002010BD80B501214FF4B5
:102760008040FFF7BBFD01210520FFF7B7FD5F4863
:1027700000F0D4F84FF40070ADF8000018208DF888
:10278000030002208DF8020069465948FFF7F4FD66
:102790004FF48060ADF8000002208DF802000420A4
:1027A0008DF8030069465248FFF7E6FD5FF4E1301B
:1027B0005049086000204F49888000204D49C8805A
:1027C00000204C49088100204A4988810820494955
:1027D00048814849454800F0E9F84021434800F065
:1027E00080F90121414800F05BF901BD80B501216C
:1027F0000920FFF773FD01213F48FFF75BFE012031
:10280000ADF8000010208DF8030002208DF80200C2
:1028100069463948FFF7B0FD01BD80B5012111209F
:10282000FFF75CFD4FF40050ADF8000010208DF86C
:10283000030002208DF8020069463048FFF79CFD36
:1028400001BD80B5FFF789FF2D48FFF749FF2D48EF
:1028500000684FF47A71B0FBF1F0FFF766FFFFF705
:10286000C5FF01212448FFF722FEFFF78BFBFFF78E
:10287000D4FF2548007800280BD00020224908709A
:102880002248C37821484278204801782048FFF741
:1028900027FF204800784006EBD51F48006890F4D9
:1028A00000501D4908601B48007810F0BF0019490E
:1028B0000870DEE738B504000D002100C9B289B206
:1028C0000A4800F0FBF84021084800F0FBF8002817
:1028D000F9D0200032BD000018ED00E000E400E077
:1028E00014E000E018E000E010E000E000380140F3
:1028F00000080140F0070020000C014000100140DA
:10290000302E0008340000201C080020C8070020DA
:10291000E42E00081A0800200C10014010B5040035
:102920005A4884420AD101214FF48040FFF7F4FC59
:1029300000214FF48040FFF7EFFC36E0544884421A
:102940000AD101215FF40030FFF7F5FC00215FF4AC
:102950000030FFF7F0FC28E04E4884420AD1012104
:102960005FF48020FFF7E7FC00215FF48020FFF791
:10297000E2FC1AE0484884420AD101215FF40020B9
:10298000FFF7D9FC00215FF40020FFF7D4FC0CE036
:102990004248844209D101215FF48010FFF7CBFC4B
:1029A00000215FF48010FFF7C6FC10BD2DE9F04751
:1029B00086B004000D00002600275FF000085FF0DD
:1029C00000095FF0000AA8890028A246208A0600B4
:1029D0004CF6FF700640E88806432682A089060070
:1029E0004EF6F3100640A8882989084369890843F0
:1029F0000643A681A08A06004FF6FF400640A8893C
:102A00000643A6826846FFF7FBFB2048824502D1B9
:102A10000398070001E002980700A089000408D588
:102A2000192000FB07F029684900B0FBF1F080464F
:102A300007E0192000FB07F029688900B0FBF1F0DE
:102A400080466420B8FBF0F00001060030096421E4
:102A500001FB10808146A089000409D55FEAC90006
:102A600032306421B0FBF1F010F00700064308E0BB
:102A70005FEA091032306421B0FBF1F010F00F0072
:102A80000643268106B0BDE8F0870000003801400B
:102A90000044004000480040004C0040005000400E
:102AA000C9B2002904D0828952F40052828104E024
:102AB00082894DF6FF731A4082817047CA05D20D94
:102AC000828070470200002089B2B1F5007F138830
:102AD0000B4202D00123180001E000231800C0B20D
:102AE000704789B28A0589B2CA43028070470000E4
:102AF0007047FEE7FEE7FEE7FEE770477047704766
:102B00004E480078C00711D44D480088401C4C49FD
:102B100008804B480088052808D1002048490880D3
:102B20004648007850F00100444908704348007856
:102B3000800711D443480088401C4249088041481E
:102B400000880A2808D100203E4908803B480078C8
:102B500050F002003949087038480078400711D415
:102B600039480088401C38490880374800881428B4
:102B700008D10020344908803048007850F0040023
:102B80002E4908702D480078000711D42F4800887E
:102B9000401C2E4908802D480088322808D100208A
:102BA0002A4908802548007850F008002349087019
:102BB00022480078C00611D425480088401C2449CA
:102BC000088023480088642808D100202049088014
:102BD0001A48007850F0100018490870174800781B
:102BE000800611D41B480088401C1A4908801948E7
:102BF0000088C82808D10020164908800F480078AE
:102C000050F020000D4908700C480078400612D49E
:102C100011480088401C104908800F480088B0F512
:102C2000FA7F08D100200C4908800448007850F051
:102C300040000249087000BF704700001A080020D9
:102C40000C0800200E0800201008002012080020A8
:102C5000140800201608002018080020704770474C
:102C600080B54E48006850F001004C4908604C485F
:102C700000684C4908404A490860484800684A4989
:102C80000840464908604548006830F480204349C0
:102C900008604348006830F4FE00414908605FF472
:102CA0001F004249086000F005F85FF000604049ED
:102CB000086001BD80B500F001F801BD82B00020C0
:102CC0000190002000903548006850F4803033496E
:102CD00008603248006810F4003000900198401CF1
:102CE00001900098002803D10198B0F5A06FF0D1B1
:102CF0002A480068800302D50120009001E00020EE
:102D000000900098012847D12A48006850F0100030
:102D10002849086027480068800880002549086025
:102D20002448006850F00200224908601C480068EE
:102D30001B4908601A48006819490860184800686B
:102D400050F48060164908601548006830F47C1023
:102D5000134908601248006850F4E81010490860F0
:102D60000E48006850F080700C4908600B480068FD
:102D70008001FBD50A480068800880000849086087
:102D80000748006850F002000549086004480068E0
:102D900010F00C000828F9D102B070470010024072
:102DA000041002400000FFF8FFFFF6FE081002408A
:102DB00008ED00E00020024019E050F8041BCB07AA
:102DC00044BFA9F101035918121F0023042A41F836
:102DD000043BF9D25FEA827C0B4604D54FF0000C2D
:102DE000A1F800C09B1CD10744BF0021197050F806
:102DF000042B002AE1D1704730B50168426884682D
:102E0000091801EB5203D20748BF4C440C309942D9
:102E100000D130BD11F9012B11F8015B002A04F833
:102E2000015B02D5521CF9D1F1E7521EF4D5EEE751
:102E3000446F636B436173652031303057205374A6
:102E40006172742C2048575F496E697420202E2EC1
:102E50002E200D0A0000000010B5074979441831F2
:102E6000064C7C44163404E00A68081D5118884753
:102E70000146A142F8D110BD080000002400000066
:102E800039FFFFFFA80000007807002000000000C5
:102E900069FFFFFF500100009800000000000020C3
:102EA00000F00BF8002801D0FFF7D6FF0020C04645
:102EB000C046FFF7C6FC00F002F80120704700F0A2
:102EC00001B800000746384600F002F8FBE70000B2
:102ED00080B5C046C046024A11001820ABBEFBE7D1
:102EE0002600020052435620253032782025303209
:102EF000782025303278200D0A00000038B50446CD
:102F00000D46284600F006F8A84218BF00242046C7
:102F100032BD00000149FFF7CDBC00BF38000020E2
:102F20000148804701480047612C00083D2F0008F8
:102F30002D3E20253032780D0A000000C046C046E4
:102F4000C046C046FFF7ACFFFFF7FEBFFFF7FEBF6E
:102F5000FFF7FEBFFFF7FEBFFFF7FEBFFFF7FEBFA5
:102F6000FFF7FEBFFFF7FEBFFFF7FEBFFFF7FEBF95
:102F7000FFF7FEBFFFF7FEBFFFF7FEBFFFF7FEBF85
:102F8000FFF7FEBFFFF7FEBFFFF7FEBFFFF7FEBF75
:102F9000FFF7FEBFFFF7FEBFFFF7FEBFFFF7FEBF65
:102FA000FFF7FEBFFFF7FEBFFFF7FEBFFFF7FEBF55
:102FB000FFF7FEBFFFF7FEBFFFF7FEBFFFF7FEBF45
:102FC000FFF7FEBFFFF7FEBFFFF7FEBFFFF7FEBF35
:102FD000FFF7FEBFFFF7FEBFFFF7FEBFFFF7FEBF25
:102FE000FFF7FEBFF800050426000004C0EA003326
:102FF000010203040102030406070809020406088B
:1030000000A24A040204010178070020C80700203A
:10301000780700207807002078070020750000203E
:103020005C000020C400F8FFDC00FAFF8100D10042
:0400000508002F3D83
:00000001FF
